:100000000C9462000C948A000C948A000C948A0070
:100010000C948A000C948A000C948A000C948A0038
:100020000C948A000C948A000C948A000C948A0028
:100030000C948A000C948A000C948A000C948A0018
:100040000C946B050C948A000C948A000C948A0022
:100050000C948A000C948A000C948A000C948A00F8
:100060000C948A000C948A000000000024002700F1
:100070002A0000000000250028002B0004040404CE
:100080000404040402020202020203030303030342
:10009000010204081020408001020408102001021F
:1000A00004081020000000080002010000030407FB
:1000B00000000000000000000000000023002600F7
:1000C0002900F30611241FBECFEFD8E0DEBFCDBF5D
:1000D00011E0A0E0B1E0EEE3F3E102C005900D9283
:1000E000A033B107D9F721E0A0E3B1E001C01D9230
:1000F000A336B207E1F710E0C2E6D0E004C02197D2
:10010000FE010E949209C136D107C9F70E94B505C8
:100110000C949D090C9400008F929F92AF92BF9215
:10012000CF92DF92EF92FF92CF93DF93A0914001A5
:10013000882311F03A2F01C030E08091410190E016
:10014000880F991F88549F4FC0904601D090470157
:10015000E0904801F090490140E050E0BA01FC0114
:10016000C591D49128812A2323130FC04A015B0132
:100170002FEF821A920AA20AB20A4C155D056E058B
:100180007F0538F4B501A401EACF342F252FCB0128
:1001900004C030E020E080E090E0632F722FDF9118
:1001A000CF91FF90EF90DF90CF90BF90AF909F9056
:1001B0008F90089590E0FC01EC55FF4F3491FC01C5
:1001C000E057FF4F2491FC01E458FF4FE491EE23E8
:1001D00009F43BC0332339F1333091F038F4313036
:1001E000A9F0323001F584B58F7D12C0373091F01F
:1001F0003830A1F03430B9F4809180008F7D03C095
:10020000809180008F77809380000DC084B58F77B8
:1002100084BD09C08091B0008F7703C08091B00089
:100220008F7D8093B000F0E0EE0FFF1FEE58FF4F80
:10023000A591B4918FB7F894EC91611103C020950A
:100240002E2301C02E2B2C938FBF0895CF93DF93C5
:1002500090E0FC01E057FF4F2491FC01E458FF4F70
:100260008491882361F190E0880F991FFC01E8597F
:10027000FF4FC591D491FC01EE58FF4FA591B49169
:10028000611109C09FB7F8948881209582238883E3
:10029000EC912E230BC0623061F49FB7F894388143
:1002A000822F809583238883EC912E2B2C939FBFE4
:1002B00006C08FB7F894E8812E2B28838FBFDF917B
:1002C000CF9108953FB7F894809131019091320118
:1002D000A0913301B091340126B5A89B05C02F3FF2
:1002E00019F00196A11DB11D3FBFBA2FA92F982F5C
:1002F0008827820F911DA11DB11DBC01CD0142E0D7
:10030000660F771F881F991F4A95D1F708958F921E
:100310009F92AF92BF92CF92DF92EF92FF926B01CA
:100320007C010E9462014B015C01C114D104E10413
:10033000F104F1F00E946201DC01CB0188199909F6
:10034000AA09BB09883E9340A105B10570F321E0DD
:10035000C21AD108E108F10888EE880E83E0981EE1
:10036000A11CB11CC114D104E104F10419F7DDCFC3
:10037000FF90EF90DF90CF90BF90AF909F908F90C5
:100380000895CF92DF92EF92FF920F931F93CF9336
:10039000DF93CDB7DEB7C054D1400FB6F894DEBFBF
:1003A0000FBECDBF2FB7F8948091350190913601E3
:1003B000A0913701B09138012FBF40914201509177
:1003C000430160914401709145018C019D01041B22
:1003D000150B260B370BB901A801403D57406105AD
:1003E000710518F480914A01BCC08093420190933A
:1003F0004301A0934401B093450110923D01109236
:100400003C0110923B0110923A011092390161E0D7
:1004100080913E010E94DA006AEF70E080E090E097
:100420000E94870161E080913E010E94260160E008
:1004300080913E010E94DA0064E170E080E090E08B
:100440000E948701F89461E080913E010E94DA00E9
:100450008BE990E00197F1F762E080913E010E9404
:10046000260183E290E00197F1F780E00E948C0082
:10047000672B682B692B21F410924A0178943EC0B7
:1004800081E00E948C00672B682B692BA9F38E01F9
:100490000F5F1F4F6E012FEBC21A2EEFD20A7801A9
:1004A00080E00E948C00F7016083718382839383D4
:1004B00081E00E948C00F7016483758386839783B3
:1004C000F8E0EF0EF11CEC14FD0451F7789420E0F5
:1004D00030E0F8014081518162817381C480D58010
:1004E000E680F780411551056105710529F0C114B9
:1004F000D104E104F10421F410924A0180E031C0FA
:10050000F90183E0F595E7958A95E1F7E75CFE4F01
:100510008081880F4C155D056E057F0508F48160AC
:1005200080832F5F3F4F085F1F4F2832310589F6C8
:1005300020913D0130E04091390180913A0190E0F5
:10054000840F911D40913B01840F911D40913C010E
:10055000840F911D99272817390771F681E0809340
:100560004A01C05CDE4F0FB6F894DEBF0FBECDBFB0
:10057000DF91CF911F910F91FF90EF90DF90CF907F
:100580000895CF92DF92EF92FF920F931F93CF9334
:10059000DF936C017A018B01C0E0D0E0CE15DF055E
:1005A00089F0D8016D918D01D601ED91FC910190FA
:1005B000F081E02DC6010995892B11F47E0102C05E
:1005C0002196ECCFC701DF91CF911F910F91FF9042
:1005D000EF90DF90CF900895CF93DF93EC0160E030
:1005E0008E810E94DA0061E08E810E94DA0060E074
:1005F0008E810E94DA008BE891E00197F1F7DF919C
:10060000CF910895CF92DF92EF92FF920F931F93B5
:10061000CF93DF937C016C0187E0C80ED11CC0E052
:10062000D0E0062F10E0B8010C2E02C0759567953A
:100630000A94E2F76170F60181916F010E94DA007D
:100640002196C430D10579F7C701DF91CF911F9171
:100650000F91FF90EF90DF90CF900C94EC02CF922F
:10066000DF92EF92FF920F931F93CF93DF93EC01F2
:10067000F62E642F8C810E94DA008D818F3F19F055
:1006800060E00E94DA008F850F2D10E084FF25C006
:100690006E0187E0C80ED11CE12CF12CB8010E2CA4
:1006A00002C0759567950A94E2F76170F601819131
:1006B0006F010E94DA00FFEFEF1AFF0A88E0E816E8
:1006C000F10461F7CE01DF91CF911F910F91FF905F
:1006D000EF90DF90CF900C94EC02B80184E0759518
:1006E00067958A95E1F7CE010E9402036F2DCE0136
:1006F000DF91CF911F910F91FF90EF90DF90CF90FE
:100700000C94020341E00E942F0381E090E00895E1
:1007100040E00C942F03EF92FF920F931F93CF931F
:10072000DF93EC01623018F08F8588608F876B8BC8
:100730001C8A80E48D8B80E18E8B80E58F8B61E05D
:100740008C810E9426018D818F3F19F061E00E940B
:10075000260161E08E810E9426017E0187E0E80E7D
:10076000F11C00E010E08F8584FD03C084E090E080
:1007700002C088E090E0081719074CF461E0F70127
:1007800081917F010E9426010F5F1F4FECCF8BE309
:100790009DE00197F1F760E08C810E94DA0060E053
:1007A0008E810E94DA008D818F3F19F060E00E94F7
:1007B000DA006F8564FD1DC063E0CE010E94020374
:1007C0000BE416E4C8010197F1F763E0CE010E9443
:1007D0000203C8010197F1F763E0CE010E94020312
:1007E00083E592E00197F1F762E0CE010E940203F7
:1007F00016C06062CE010E9488038BE496E40197E4
:10080000F1F76F856062CE010E94880383E592E074
:100810000197F1F76F856062CE010E9488036F85B2
:100820006062CE010E94880384E0888B6CE0CE0178
:100830000E94880361E0CE010E9488038BE39FE160
:100840000197F1F782E0898B66E0CE01DF91CF91CD
:100850001F910F91FF90EF900C948803089580E012
:1008600090E00895009769F0FC0101900020E9F7FD
:100870003197AF01481B590BBC018BE491E00C94FC
:10088000C10280E090E008958F929F92AF92BF9254
:100890000F931F93CF93DF93CDB7DEB7A1970FB61A
:1008A000F894DEBF0FBECDBF19A2423008F44AE073
:1008B0008E010F5D1F4F842E912CA12CB12CA50110
:1008C00094010E947009E62FB901CA010150110973
:1008D000EA3014F4E05D01C0E95CD801EC93232B0D
:1008E000242B252B61F7C8010E943204A1960FB674
:1008F000F894DEBF0FBECDBFDF91CF911F910F9156
:10090000BF90AF909F908F9008954F925F926F929B
:100910007F928F929F92AF92BF92CF92DF92EF928F
:10092000FF926B017C01B42E9B01AC010E946B090C
:10093000882319F08CE091E027C026013701E89464
:1009400077F82FEF3FEF4FE75FE7C301B2010E9457
:100950006B0981110DC02FEF3FEF4FE75FE7C30138
:10096000B2010E94A10718161CF480E191E00CC0AE
:100970002FEF3FEF4FE75FE4C701B6010E94F90890
:10098000181684F484E191E0FF90EF90DF90CF900F
:10099000BF90AF909F908F907F906F905F904F909F
:1009A0000C9432042FEF3FEF4FE75FECC701B60125
:1009B0000E94A10787FDE6CF20E030E0A901C70132
:1009C000B6010E94A10787FF11C0E0914B01F09191
:1009D0004C010190F081E02D6DE28BE491E00995EE
:1009E0004C01F7FAF094F7F8F09402C0812C912CA6
:1009F000A12C60E070E080E09FE3AB1441F020E0C8
:100A000030E040E251E40E94A607A394F6CF9B0198
:100A1000AC01C701B6010E9435072B013C010E94C1
:100A200018086B017C010E9447089B01AC01C301BF
:100A3000B2010E9434072B013C014AE0C701B60114
:100A40000E9444047C01E80CF91CBB2069F0E09191
:100A50004B01F0914C010190F081E02D6EE28BE4AE
:100A600091E00995E80EF91EDB2CDD2021F120E054
:100A700030E040E251E4C301B2010E94FE082B01C4
:100A80003C010E9418084B01A12CB12C4AE0C50181
:100A9000B4010E944404E80EF91EC501B4010E948D
:100AA00047089B01AC01C301B2010E9434072B012E
:100AB0003C01DA94DACFC701FF90EF90DF90CF903E
:100AC000BF90AF909F908F907F906F905F904F906E
:100AD00008950E9498091F920F920FB60F92112449
:100AE0002F933F938F939F93AF93BF938091350143
:100AF00090913601A0913701B091380130913001C9
:100B000023E0230F2D3720F40196A11DB11D05C050
:100B100026E8230F0296A11DB11D2093300180937A
:100B2000350190933601A0933701B093380180913D
:100B3000310190913201A0913301B09134010196BD
:100B4000A11DB11D8093310190933201A093330117
:100B5000B0933401BF91AF919F918F913F912F91AD
:100B60000F900FBE0F901F901895789484B58260F7
:100B700084BD84B5816084BD85B5826085BD85B541
:100B8000816085BD80916E00816080936E001092BF
:100B9000810080918100826080938100809181003A
:100BA00081608093810080918000816080938000CB
:100BB0008091B10084608093B1008091B000816029
:100BC0008093B00080917A00846080937A00809155
:100BD0007A00826080937A0080917A0081608093AD
:100BE0007A0080917A00806880937A001092C10028
:100BF00062E08BE491E00E948B0362E080913E0111
:100C00000E94260180E398EFAFEFBFEF809342018F
:100C100090934301A0934401B093450188E191E092
:100C20000E943204C0E0D0E064EF71E080E090E028
:100C30000E948701E0915E01E23010F4E15001C0B2
:100C4000E1E0F0E0E55BFE4F648960688BE491E0F1
:100C50000E9488030E94C1018823B1F180913F0165
:100C60008B3041F188F18551823070F56091390106
:100C700070E080E090E00E94470820E030E040E82B
:100C800053E40E94FE086B017C0180913A01682FB9
:100C900070E080E090E00E9449089B01AC01C70130
:100CA000B6010E9435072DEC3CEC4CEC5DE30E9454
:100CB000FE0807C06091390170E080E090E00E947A
:100CC00047086B017C0106C0C12CD12C90ECE92EA9
:100CD0009FE7F92E0E94C101882309F47FC080910B
:100CE0003F018B3031F008F442C08551823048F02A
:100CF0003EC060913B0170E080E090E00E944708B8
:100D000027C010913B01612F6F7770E080E090E089
:100D10000E94490820E030E040E853E40E94FE08C9
:100D20004B015C0180913C01682F70E080E090E015
:100D30000E9449089B01AC01C501B4010E9435071E
:100D40002DEC3CEC4CEC5DE30E94FE0817FD905846
:100D500026E636E646EE5FE30E94FE0820E030E03D
:100D600040E052E40E9435074B015C0106C0812C33
:100D7000912C80ECA82E8FE7B82EA7019601C70111
:100D8000B6010E946B09811129C0A5019401C5011A
:100D9000B4010E946B09811121C042E0C501B40178
:100DA0000E948504E0915E01E230B0F4E150F0E091
:100DB000E55BFE4F6489695F60688BE491E00E94A7
:100DC000880342E0C701B6010E948504209709F418
:100DD0002BCF0E94000028CFE1E0E9CF89E291E02B
:100DE0000E943204F3CFCF93EBE4F1E0138212823E
:100DF00084E091E0918380838CE084838FEF85830E
:100E0000CBE0C68385E0878384E0808783E08187A9
:100E100082E082871386148615861686178661E01F
:100E2000CF010E948B03A9E3B1E088E015968C9373
:100E300015971696CC931697E8E9F0E0E49117968B
:100E4000EC931797E4E8F0E0E4911896EC93189788
:100E500040E85EE360E070E01D964D935D936D9316
:100E60007C935097CF9108955058BB27AA270E9492
:100E70004C070C94BF080E94B10838F00E94B808D3
:100E800020F039F49F3F19F426F40C94AE080EF4C8
:100E9000E095E7FB0C94A808E92F0E94D00858F3CE
:100EA000BA17620773078407950720F079F4A6F54F
:100EB0000C94F2080EF4E0950B2EBA2FA02D0B0126
:100EC000B90190010C01CA01A0011124FF27591B8F
:100ED00099F0593F50F4503E68F11A16F040A22F95
:100EE000232F342F4427585FF3CF46953795279506
:100EF000A795F0405395C9F77EF41F16BA0B620B05
:100F0000730B840BBAF09150A1F0FF0FBB1F661F4B
:100F1000771F881FC2F70EC0BA0F621F731F841F8E
:100F200048F4879577956795B795F7959E3F08F0B4
:100F3000B0CF9395880F08F09927EE0F9795879576
:100F400008950E94840808F481E008950E94BA0779
:100F50000C94BF080E94B80858F00E94B10840F0F5
:100F600029F45F3F29F00C94A80851110C94F30860
:100F70000C94AE080E94D00868F39923B1F355236E
:100F800091F3951B550BBB27AA276217730784079C
:100F900038F09F5F5F4F220F331F441FAA1FA9F332
:100FA00035D00E2E3AF0E0E832D091505040E69520
:100FB000001CCAF72BD0FE2F29D0660F771F881F81
:100FC000BB1F261737074807AB07B0E809F0BB0B74
:100FD000802DBF01FF2793585F4F3AF09E3F510588
:100FE00078F00C94A8080C94F3085F3FE4F3983E63
:100FF000D4F3869577956795B795F7959F5FC9F771
:10100000880F911D9695879597F90895E1E0660FF1
:10101000771F881FBB1F621773078407BA0720F06A
:10102000621B730B840BBA0BEE1F88F7E0950895D3
:101030000E94D80888F09F5798F0B92F9927B75188
:10104000B0F0E1F0660F771F881F991F1AF0BA956C
:10105000C9F714C0B13091F00E94F208B1E00895D0
:101060000C94F208672F782F8827B85F39F0B93FC2
:10107000CCF3869577956795B395D9F73EF490951F
:101080008095709561957F4F8F4F9F4F0895E8949D
:1010900009C097FB3EF490958095709561957F4FC0
:1010A0008F4F9F4F9923A9F0F92F96E9BB2793956E
:1010B000F695879577956795B795F111F8CFFAF47E
:1010C000BB0F11F460FF1BC06F5F7F4F8F4F9F4FAF
:1010D00016C0882311F096E911C0772321F09EE80D
:1010E000872F762F05C0662371F096E8862F70E073
:1010F00060E02AF09A95660F771F881FDAF7880F4D
:101100009695879597F90895990F0008550FAA0BA2
:10111000E0E8FEEF16161706E807F907C0F012160A
:101120001306E407F50798F0621B730B840B950B0D
:1011300039F40A2661F0232B242B252B21F4089562
:101140000A2609F4A140A6958FEF811D811D0895FF
:1011500097F99F6780E870E060E008959FEF80EC6A
:10116000089500240A94161617061806090608950D
:1011700000240A9412161306140605060895092E73
:101180000394000C11F4882352F0BB0F40F4BF2BE2
:1011900011F460FF04C06F5F7F4F8F4F9F4F089522
:1011A00057FD9058440F551F59F05F3F71F0479518
:1011B000880F97FB991F61F09F3F79F087950895FD
:1011C000121613061406551FF2CF4695F1DF08C01C
:1011D000161617061806991FF1CF86957105610539
:1011E00008940895E894BB2766277727CB0197F9E1
:1011F00008950E94840808F48FEF08950E94110951
:101200000C94BF080E94B10838F00E94B80820F082
:10121000952311F00C94A8080C94AE0811240C949A
:10122000F3080E94D00870F3959FC1F3950F50E02A
:10123000551F629FF001729FBB27F00DB11D639F88
:10124000AA27F00DB11DAA1F649F6627B00DA11D2E
:10125000661F829F2227B00DA11D621F739FB00DD4
:10126000A11D621F839FA00D611D221F749F332744
:10127000A00D611D231F849F600D211D822F762FDD
:101280006A2F11249F5750409AF0F1F088234AF0BA
:10129000EE0FFF1FBB1F661F771F881F9150504026
:1012A000A9F79E3F510580F00C94A8080C94F30810
:1012B0005F3FE4F3983ED4F3869577956795B795AD
:1012C000F795E7959F5FC1F7FE2B880F911D9695C7
:1012D000879597F908950E948408880B990B0895C3
:1012E000A1E21A2EAA1BBB1BFD010DC0AA1FBB1F2A
:1012F000EE1FFF1FA217B307E407F50720F0A21B9C
:10130000B30BE40BF50B661F771F881F991F1A9408
:1013100069F760957095809590959B01AC01BD0132
:10132000CF010895EE0FFF1F0590F491E02D099471
:0E13300081E090E0F8940C949D09F894FFCFB2
:10133E00000000008203C1022F042E046E616E00B5
:10134E00696E66006F76660054656D703A202048AF
:10135E00756D69646974793A004552524F520000B6
:00000001FF
